:100000000C945D000C9485000C9485000C94850084
:100010000C9485000C9485000C9485000C9485004C
:100020000C9485000C9485000C9485000C9485003C
:100030000C9485000C9485000C9485000C9485002C
:100040000C94E6020C9485000C9485000C948500B9
:100050000C9485000C9485000C9485000C9485000C
:100060000C9485000C94850000000008000201003B
:100070000003040700000000000000000000000072
:10008000250028002B0000000000240027002A0083
:10009000040404040404040402020202020203032E
:1000A0000303030301020408102040800102040836
:1000B0001020010204081020DE0311241FBECFEF20
:1000C000D8E0DEBFCDBF11E0A0E0B1E0E2E1F8E0B2
:1000D00002C005900D92AA32B107D9F721E0AAE239
:1000E000B1E001C01D92AB34B207E1F710E0CDE5FD
:1000F000D0E004C02197FE010E94FC03CC35D1075B
:10010000C9F70E9430030C9407040C94000090E09F
:10011000FC01EC55FF4F2491FC01E057FF4F849107
:10012000882399F090E0880F991FFC01EA57FF4F50
:10013000A591B491FC01E458FF4F859194918FB73C
:10014000F894EC91E22BEC938FBF089590E0FC01C2
:10015000E859FF4F2491FC01EC55FF4F3491FC010D
:10016000E057FF4FE491EE2309F43CC0222339F11C
:10017000233091F038F42130A9F0223001F584B514
:100180008F7D12C0273091F02830A1F02430B9F4CF
:10019000809180008F7D03C0809180008F77809355
:1001A00080000DC084B58F7784BD09C08091B000F8
:1001B0008F7703C08091B0008F7D8093B000F0E016
:1001C000EE0FFF1FE458FF4FA591B4919FB7F8942D
:1001D000611104C08C913095382302C0EC913E2B04
:1001E0003C939FBF08953FB7F89480912F01909161
:1001F0003001A0913101B091320126B5A89B05C014
:100200002F3F19F00196A11DB11D3FBFBA2FA92F95
:10021000982F8827820F911DA11DB11DBC01CD0112
:1002200042E0660F771F881F991F4A95D1F70895FE
:100230008F929F92AF92BF92CF92DF92EF92FF92F6
:100240006B017C010E94F3004B015C01C114D104DD
:10025000E104F104F1F00E94F300DC01CB01881904
:100260009909AA09BB09883E9340A105B10570F31D
:1002700021E0C21AD108E108F10888EE880E83E077
:10028000981EA11CB11CC114D104E104F10419F79A
:10029000DDCFFF90EF90DF90CF90BF90AF909F9019
:1002A0008F900895CF92DF92EF92FF920F931F935A
:1002B000CF93DF936C017A018B01C0E0D0E0CE15C3
:1002C000DF0581F0D8016D918D01D601ED91FC9192
:1002D0000190F081E02DC6010995892B11F021963E
:1002E000EECF7E01C701DF91CF911F910F91FF905B
:1002F000EF90DF90CF900895CF93DF93EC0160E013
:100300008E810E94A60061E08E810E94A60060E0BE
:100310008E810E94A6008BE891E00197F1F7DF91B2
:10032000CF910895CF92DF92EF92FF920F931F9398
:10033000CF93DF936C017C0187E0E80EF11CC0E0F5
:10034000D0E0062F10E0B8010C2E02C0759567951D
:100350000A94E2F76170F70181917F010E94A60083
:100360002196C430D10579F7C601DF91CF911F9155
:100370000F91FF90EF90DF90CF900C947C01CF9283
:10038000DF92EF92FF920F931F93CF93DF93EC01D5
:10039000F62E642F8C810E94A6008D818F3F19F06C
:1003A00060E00E94A6008F850F2D10E084FF25C01D
:1003B0006E0187E0C80ED11CE12CF12CB8010E2C87
:1003C00002C0759567950A94E2F76170F601819114
:1003D0006F010E94A600FFEFEF1AFF0A88E0E816FF
:1003E000F10461F7CE01DF91CF911F910F91FF9042
:1003F000EF90DF90CF900C947C01B80184E075956C
:1004000067958A95E1F7CE010E9492016F2DCE018A
:10041000DF91CF911F910F91FF90EF90DF90CF90E0
:100420000C94920140E0682F83E391E00C94BF01AB
:1004300081E00E9412028BE39FE10197F1F708959A
:10044000CF93DF93823028F090914201986090938F
:100450004201809346011092470180E48093480155
:1004600080E18093490180E580934A0180913701C2
:100470000E948700809138018F3F11F00E94870011
:10048000809139010E948700C3E3D1E09E0123538C
:1004900031408091420184FD03C084E090E002C0BD
:1004A00088E090E021962817390724F48E810E9475
:1004B0008700ECCF8BE39DE00197F1F760E080913E
:1004C00037010E94A60060E0809139010E94A600D9
:1004D000809138018F3F19F060E00E94A600809162
:1004E000420184FD20C063E083E391E00E94920119
:1004F000CBE4D6E4CE010197F1F763E083E391E02A
:100500000E9492012197F1F763E083E391E00E945A
:10051000920183E592E00197F1F762E083E391E0D5
:100520000E94920115C080620E9412028BE496E440
:100530000197F1F78091420180620E94120283E5E7
:1005400092E00197F1F78091420180620E941202CD
:100550008091420180620E94120284E080934301F4
:100560008CE00E9412020E94180282E080934401F3
:1005700086E0DF91CF910C94120241E00E94BF010E
:1005800081E090E008950F931F93CF93DF938B0149
:10059000877028E0829FC001112480640E941202AB
:1005A000E801085F1F4F699183E391E00E94BD025B
:1005B000C017D107C1F7DF91CF911F910F91089517
:1005C000089580E090E008950E9402041F920F9227
:1005D0000FB60F9211242F933F938F939F93AF9356
:1005E000BF9380912B0190912C01A0912D01B0918E
:1005F0002E0130912A0123E0230F2D3720F401969C
:10060000A11DB11D05C026E8230F0296A11DB11D35
:1006100020932A0180932B0190932C01A0932D010C
:10062000B0932E0180912F0190913001A091310162
:10063000B09132010196A11DB11D80932F019093BD
:100640003001A0933101B0933201BF91AF919F91DE
:100650008F913F912F910F900FBE0F901F90189583
:10066000789484B5826084BD84B5816084BD85B58D
:10067000826085BD85B5816085BD80916E00816099
:1006800080936E001092810080918100826080933F
:100690008100809181008160809381008091800041
:1006A0008160809380008091B10084608093B1006C
:1006B0008091B00081608093B00080917A00846066
:1006C00080937A0080917A00826080937A00809192
:1006D0007A00816080937A0080917A0080688093AC
:1006E0007A001092C10082E00E942002E1E0809135
:1006F00046018111E0E0E195F0E0ED5CFE4F848978
:1007000080680E94120245E050E064E271E083E3F9
:1007100091E00E94520168EB7BE080E090E00E9453
:10072000180160E171E081E00E94C30268E071E0BD
:1007300082E00E94C30260E071E083E00E94C30295
:100740000E941802C0E0D0E010E0E1E08091460194
:100750008111E0E0E195F0E0ED5CFE4F8489810FCE
:1007600080680E94120261E083E391E00E94BD0272
:1007700091E0910FE0914601E23010F4E15001C0A8
:10078000E1E0F0E0ED5CFE4F8489890F80680E9413
:10079000120263E083E391E00E94BD0264EF71E026
:1007A00080E090E00E9418011E5F103171F60E94F7
:1007B0001802209749F20E940000C6CFE3E3F1E05F
:1007C000138212828CE191E0918380838CE0848398
:1007D0008FEF85838BE0868385E0878384E0808745
:1007E00083E0818782E082871386148615861686C9
:1007F000178681E00C942002EE0FFF1F0590F49104
:10080000E02D099481E090E0F8940C940704F894AA
:02081000FFCF18
:100812001111111111110A041111111111111111DA
:10082200040A11111111111100000000BD02520140
:0A083200E102E00248656C6C6F0003
:00000001FF
